{
  "contractName": "Rewards",
  "abi": [
    {
      "inputs": [
        {
          "internalType": "contract WToken",
          "name": "_wTokenAddr",
          "type": "address"
        },
        {
          "internalType": "contract USDToken",
          "name": "_usdTokenAddr",
          "type": "address"
        }
      ],
      "stateMutability": "payable",
      "type": "constructor"
    },
    {
      "inputs": [
        {
          "internalType": "uint256",
          "name": "",
          "type": "uint256"
        }
      ],
      "name": "allStakers",
      "outputs": [
        {
          "internalType": "address",
          "name": "",
          "type": "address"
        }
      ],
      "stateMutability": "view",
      "type": "function"
    },
    {
      "inputs": [],
      "name": "index",
      "outputs": [
        {
          "internalType": "uint8",
          "name": "",
          "type": "uint8"
        }
      ],
      "stateMutability": "view",
      "type": "function"
    },
    {
      "inputs": [],
      "name": "owner",
      "outputs": [
        {
          "internalType": "address",
          "name": "",
          "type": "address"
        }
      ],
      "stateMutability": "view",
      "type": "function"
    },
    {
      "inputs": [],
      "name": "usdToken",
      "outputs": [
        {
          "internalType": "contract USDToken",
          "name": "",
          "type": "address"
        }
      ],
      "stateMutability": "view",
      "type": "function"
    },
    {
      "inputs": [],
      "name": "wToken",
      "outputs": [
        {
          "internalType": "contract WToken",
          "name": "",
          "type": "address"
        }
      ],
      "stateMutability": "view",
      "type": "function"
    },
    {
      "inputs": [
        {
          "internalType": "uint256",
          "name": "_amount",
          "type": "uint256"
        }
      ],
      "name": "setRewards",
      "outputs": [],
      "stateMutability": "payable",
      "type": "function"
    },
    {
      "inputs": [
        {
          "internalType": "uint256",
          "name": "_amount",
          "type": "uint256"
        }
      ],
      "name": "setStake",
      "outputs": [],
      "stateMutability": "payable",
      "type": "function"
    }
  ],
  "bytecode": "0x60806040526000600260146101000a81548160ff021916908360ff16021790555060405162001162380380620011628339818101604052810190620000459190620001d2565b33600260006101000a81548173ffffffffffffffffffffffffffffffffffffffff021916908373ffffffffffffffffffffffffffffffffffffffff160217905550816000806101000a81548173ffffffffffffffffffffffffffffffffffffffff021916908373ffffffffffffffffffffffffffffffffffffffff16021790555080600160006101000a81548173ffffffffffffffffffffffffffffffffffffffff021916908373ffffffffffffffffffffffffffffffffffffffff160217905550505062000219565b600080fd5b600073ffffffffffffffffffffffffffffffffffffffff82169050919050565b6000620001418262000114565b9050919050565b6000620001558262000134565b9050919050565b620001678162000148565b81146200017357600080fd5b50565b60008151905062000187816200015c565b92915050565b60006200019a8262000134565b9050919050565b620001ac816200018d565b8114620001b857600080fd5b50565b600081519050620001cc81620001a1565b92915050565b60008060408385031215620001ec57620001eb6200010f565b5b6000620001fc8582860162000176565b92505060206200020f85828601620001bb565b9150509250929050565b610f3980620002296000396000f3fe6080604052600436106100705760003560e01c80638da5cb5b1161004e5780638da5cb5b146100e7578063c3214d6c14610112578063c7a29c6f1461014f578063f897a22b1461016b57610070565b80630babd864146100755780632986c0e5146100a057806335d9db53146100cb575b600080fd5b34801561008157600080fd5b5061008a610196565b6040516100979190610a22565b60405180910390f35b3480156100ac57600080fd5b506100b56101ba565b6040516100c29190610a59565b60405180910390f35b6100e560048036038101906100e09190610aaf565b6101cd565b005b3480156100f357600080fd5b506100fc610490565b6040516101099190610afd565b60405180910390f35b34801561011e57600080fd5b5061013960048036038101906101349190610aaf565b6104b6565b6040516101469190610afd565b60405180910390f35b61016960048036038101906101649190610aaf565b6104f5565b005b34801561017757600080fd5b50610180610960565b60405161018d9190610b39565b60405180910390f35b60008054906101000a900473ffffffffffffffffffffffffffffffffffffffff1681565b600260149054906101000a900460ff1681565b8060008054906101000a900473ffffffffffffffffffffffffffffffffffffffff1673ffffffffffffffffffffffffffffffffffffffff1663dd62ed3e33306040518363ffffffff1660e01b8152600401610229929190610b54565b602060405180830381865afa158015610246573d6000803e3d6000fd5b505050506040513d601f19601f8201168201806040525081019061026a9190610b92565b10156102ab576040517f08c379a00000000000000000000000000000000000000000000000000000000081526004016102a290610c1c565b60405180910390fd5b60008054906101000a900473ffffffffffffffffffffffffffffffffffffffff1673ffffffffffffffffffffffffffffffffffffffff166323b872dd3330846040518463ffffffff1660e01b815260040161030893929190610c4b565b6020604051808303816000875af1158015610327573d6000803e3d6000fd5b505050506040513d601f19601f8201168201806040525081019061034b9190610cba565b61038a576040517f08c379a000000000000000000000000000000000000000000000000000000000815260040161038190610d33565b60405180910390fd5b610392610986565b6040518060400160405280600260149054906101000a900460ff1660ff16815260200183815250905080600360003373ffffffffffffffffffffffffffffffffffffffff1673ffffffffffffffffffffffffffffffffffffffff16815260200190815260200160002060008201518160000160006101000a81548160ff021916908360ff160217905550602082015181600101559050506004339080600181540180825580915050600190039060005260206000200160009091909190916101000a81548173ffffffffffffffffffffffffffffffffffffffff021916908373ffffffffffffffffffffffffffffffffffffffff1602179055505050565b600260009054906101000a900473ffffffffffffffffffffffffffffffffffffffff1681565b600481815481106104c657600080fd5b906000526020600020016000915054906101000a900473ffffffffffffffffffffffffffffffffffffffff1681565b600260009054906101000a900473ffffffffffffffffffffffffffffffffffffffff1673ffffffffffffffffffffffffffffffffffffffff163373ffffffffffffffffffffffffffffffffffffffff161461054f57600080fd5b80600160009054906101000a900473ffffffffffffffffffffffffffffffffffffffff1673ffffffffffffffffffffffffffffffffffffffff1663dd62ed3e33306040518363ffffffff1660e01b81526004016105ad929190610b54565b602060405180830381865afa1580156105ca573d6000803e3d6000fd5b505050506040513d601f19601f820116820180604052508101906105ee9190610b92565b101561062f576040517f08c379a000000000000000000000000000000000000000000000000000000000815260040161062690610c1c565b60405180910390fd5b600160009054906101000a900473ffffffffffffffffffffffffffffffffffffffff1673ffffffffffffffffffffffffffffffffffffffff166323b872dd3330846040518463ffffffff1660e01b815260040161068e93929190610c4b565b6020604051808303816000875af11580156106ad573d6000803e3d6000fd5b505050506040513d601f19601f820116820180604052508101906106d19190610cba565b610710576040517f08c379a000000000000000000000000000000000000000000000000000000000815260040161070790610d33565b60405180910390fd5b6001600260149054906101000a900460ff1661072c9190610d82565b600260146101000a81548160ff021916908360ff16021790555060005b6004805490508160ff16101561095c57600060048260ff168154811061077257610771610db9565b5b9060005260206000200160009054906101000a900473ffffffffffffffffffffffffffffffffffffffff169050600060028060149054906101000a900460ff16600360008573ffffffffffffffffffffffffffffffffffffffff1673ffffffffffffffffffffffffffffffffffffffff16815260200190815260200160002060000160009054906101000a900460ff1661080c9190610de8565b6108169190610e4b565b60ff16600360008473ffffffffffffffffffffffffffffffffffffffff1673ffffffffffffffffffffffffffffffffffffffff168152602001908152602001600020600101546108669190610e7c565b9050600160009054906101000a900473ffffffffffffffffffffffffffffffffffffffff1673ffffffffffffffffffffffffffffffffffffffff1663a9059cbb83836040518363ffffffff1660e01b81526004016108c5929190610eb0565b6020604051808303816000875af11580156108e4573d6000803e3d6000fd5b505050506040513d601f19601f820116820180604052508101906109089190610cba565b610947576040517f08c379a000000000000000000000000000000000000000000000000000000000815260040161093e90610d33565b60405180910390fd5b5050808061095490610ed9565b915050610749565b5050565b600160009054906101000a900473ffffffffffffffffffffffffffffffffffffffff1681565b6040518060400160405280600060ff168152602001600081525090565b600073ffffffffffffffffffffffffffffffffffffffff82169050919050565b6000819050919050565b60006109e86109e36109de846109a3565b6109c3565b6109a3565b9050919050565b60006109fa826109cd565b9050919050565b6000610a0c826109ef565b9050919050565b610a1c81610a01565b82525050565b6000602082019050610a376000830184610a13565b92915050565b600060ff82169050919050565b610a5381610a3d565b82525050565b6000602082019050610a6e6000830184610a4a565b92915050565b600080fd5b6000819050919050565b610a8c81610a79565b8114610a9757600080fd5b50565b600081359050610aa981610a83565b92915050565b600060208284031215610ac557610ac4610a74565b5b6000610ad384828501610a9a565b91505092915050565b6000610ae7826109a3565b9050919050565b610af781610adc565b82525050565b6000602082019050610b126000830184610aee565b92915050565b6000610b23826109ef565b9050919050565b610b3381610b18565b82525050565b6000602082019050610b4e6000830184610b2a565b92915050565b6000604082019050610b696000830185610aee565b610b766020830184610aee565b9392505050565b600081519050610b8c81610a83565b92915050565b600060208284031215610ba857610ba7610a74565b5b6000610bb684828501610b7d565b91505092915050565b600082825260208201905092915050565b7f416c6c6f77616e63652065727200000000000000000000000000000000000000600082015250565b6000610c06600d83610bbf565b9150610c1182610bd0565b602082019050919050565b60006020820190508181036000830152610c3581610bf9565b9050919050565b610c4581610a79565b82525050565b6000606082019050610c606000830186610aee565b610c6d6020830185610aee565b610c7a6040830184610c3c565b949350505050565b60008115159050919050565b610c9781610c82565b8114610ca257600080fd5b50565b600081519050610cb481610c8e565b92915050565b600060208284031215610cd057610ccf610a74565b5b6000610cde84828501610ca5565b91505092915050565b7f5472616e73666572206572720000000000000000000000000000000000000000600082015250565b6000610d1d600c83610bbf565b9150610d2882610ce7565b602082019050919050565b60006020820190508181036000830152610d4c81610d10565b9050919050565b7f4e487b7100000000000000000000000000000000000000000000000000000000600052601160045260246000fd5b6000610d8d82610a3d565b9150610d9883610a3d565b92508260ff03821115610dae57610dad610d53565b5b828201905092915050565b7f4e487b7100000000000000000000000000000000000000000000000000000000600052603260045260246000fd5b6000610df382610a3d565b9150610dfe83610a3d565b925082821015610e1157610e10610d53565b5b828203905092915050565b7f4e487b7100000000000000000000000000000000000000000000000000000000600052601260045260246000fd5b6000610e5682610a3d565b9150610e6183610a3d565b925082610e7157610e70610e1c565b5b828204905092915050565b6000610e8782610a79565b9150610e9283610a79565b925082821015610ea557610ea4610d53565b5b828203905092915050565b6000604082019050610ec56000830185610aee565b610ed26020830184610c3c565b9392505050565b6000610ee482610a3d565b915060ff821415610ef857610ef7610d53565b5b60018201905091905056fea264697066735822122057ecacc7ded0e89ac2a92e44292b93eab993207a68a4d79816e819dd2401012264736f6c634300080a0033",
  "immutableReferences": {},
  "source": "// SPDX-License-Identifier: MIT\npragma solidity >=0.4.22 <0.9.0;\n\nimport {WToken} from \"./tokens/WToken.sol\";\nimport {USDToken} from \"./tokens/USDToken.sol\";\n\ncontract Rewards {\n    WToken public wToken;\n    USDToken public usdToken;\n\n    address public owner;\n    uint8 public index = 0;\n\n    struct Staker {\n        uint8 index;\n        uint256 amount;\n    }\n\n    mapping(address => Staker) stakers;\n    address[] public allStakers;\n\n    constructor(WToken _wTokenAddr, USDToken _usdTokenAddr) public payable {\n        owner = msg.sender;\n        wToken = _wTokenAddr;\n        usdToken = _usdTokenAddr;\n    }\n\n    modifier onlyOwner() {\n        require(msg.sender == owner);\n        _;\n    }\n\n    // TODO check functionality\n    function setRewards(uint256 _amount) public payable onlyOwner {\n        require(\n            usdToken.allowance(msg.sender, address(this)) >= _amount,\n            \"Allowance err\"\n        );\n        require(\n            usdToken.transferFrom(msg.sender, address(this), _amount),\n            \"Transfer err\"\n        );\n        index = index + 1;\n\n        for (uint8 i = 0; i < allStakers.length; i++) {\n            address wallet = allStakers[i];\n            // TODO check function\n            uint256 amount = stakers[wallet].amount - (stakers[wallet].index - index) / 2;\n            require(usdToken.transfer(wallet, amount), \"Transfer err\");\n        }\n    }\n\n    function setStake(uint256 _amount) public payable {\n        require(\n            wToken.allowance(msg.sender, address(this)) >= _amount,\n            \"Allowance err\"\n        );\n        require(\n            wToken.transferFrom(msg.sender, address(this), _amount),\n            \"Transfer err\"\n        );\n        Staker memory staker;\n        staker = Staker(index, _amount);\n        stakers[msg.sender] = staker;\n        allStakers.push(msg.sender);\n    }\n}\n",
  "sourcePath": "/Users/voroshilovmax/Development/solidity/wisdomise/contracts/Rewards.sol",
  "compiler": {
    "name": "solc",
    "version": "0.8.10+commit.fc410830.Linux.g++"
  },
  "schemaVersion": "3.4.3",
  "updatedAt": "2022-01-18T17:56:37.806Z",
  "devdoc": {
    "kind": "dev",
    "methods": {},
    "version": 1
  },
  "userdoc": {
    "kind": "user",
    "methods": {},
    "version": 1
  }
}