{
  "contractName": "Rewards",
  "abi": [
    {
      "inputs": [
        {
          "internalType": "contract WToken",
          "name": "_wTokenAddr",
          "type": "address"
        },
        {
          "internalType": "contract USDToken",
          "name": "_usdTokenAddr",
          "type": "address"
        }
      ],
      "stateMutability": "payable",
      "type": "constructor",
      "payable": true
    },
    {
      "inputs": [
        {
          "internalType": "uint256",
          "name": "",
          "type": "uint256"
        }
      ],
      "name": "allStakers",
      "outputs": [
        {
          "internalType": "address",
          "name": "",
          "type": "address"
        }
      ],
      "stateMutability": "view",
      "type": "function",
      "constant": true
    },
    {
      "inputs": [],
      "name": "index",
      "outputs": [
        {
          "internalType": "uint8",
          "name": "",
          "type": "uint8"
        }
      ],
      "stateMutability": "view",
      "type": "function",
      "constant": true
    },
    {
      "inputs": [],
      "name": "usdToken",
      "outputs": [
        {
          "internalType": "contract USDToken",
          "name": "",
          "type": "address"
        }
      ],
      "stateMutability": "view",
      "type": "function",
      "constant": true
    },
    {
      "inputs": [],
      "name": "wToken",
      "outputs": [
        {
          "internalType": "contract WToken",
          "name": "",
          "type": "address"
        }
      ],
      "stateMutability": "view",
      "type": "function",
      "constant": true
    },
    {
      "inputs": [],
      "name": "setRewards",
      "outputs": [],
      "stateMutability": "payable",
      "type": "function",
      "payable": true
    },
    {
      "inputs": [
        {
          "internalType": "uint256",
          "name": "_amount",
          "type": "uint256"
        }
      ],
      "name": "setStake",
      "outputs": [],
      "stateMutability": "payable",
      "type": "function",
      "payable": true
    }
  ],
  "bytecode": "0x60806040526000600260146101000a81548160ff021916908360ff1602179055506040516200109d3803806200109d8339818101604052810190620000459190620001d2565b33600260006101000a81548173ffffffffffffffffffffffffffffffffffffffff021916908373ffffffffffffffffffffffffffffffffffffffff160217905550816000806101000a81548173ffffffffffffffffffffffffffffffffffffffff021916908373ffffffffffffffffffffffffffffffffffffffff16021790555080600160006101000a81548173ffffffffffffffffffffffffffffffffffffffff021916908373ffffffffffffffffffffffffffffffffffffffff160217905550505062000219565b600080fd5b600073ffffffffffffffffffffffffffffffffffffffff82169050919050565b6000620001418262000114565b9050919050565b6000620001558262000134565b9050919050565b620001678162000148565b81146200017357600080fd5b50565b60008151905062000187816200015c565b92915050565b60006200019a8262000134565b9050919050565b620001ac816200018d565b8114620001b857600080fd5b50565b600081519050620001cc81620001a1565b92915050565b60008060408385031215620001ec57620001eb6200010f565b5b6000620001fc8582860162000176565b92505060206200020f85828601620001bb565b9150509250929050565b610e7480620002296000396000f3fe6080604052600436106100555760003560e01c80630babd8641461005a5780632986c0e51461008557806335d9db53146100b057806368ab8f97146100cc578063c3214d6c146100d6578063f897a22b14610113575b600080fd5b34801561006657600080fd5b5061006f61013e565b60405161007c91906108cb565b60405180910390f35b34801561009157600080fd5b5061009a610162565b6040516100a79190610902565b60405180910390f35b6100ca60048036038101906100c59190610958565b610175565b005b6100d4610438565b005b3480156100e257600080fd5b506100fd60048036038101906100f89190610958565b6107ca565b60405161010a91906109a6565b60405180910390f35b34801561011f57600080fd5b50610128610809565b60405161013591906109e2565b60405180910390f35b60008054906101000a900473ffffffffffffffffffffffffffffffffffffffff1681565b600260149054906101000a900460ff1681565b8060008054906101000a900473ffffffffffffffffffffffffffffffffffffffff1673ffffffffffffffffffffffffffffffffffffffff1663dd62ed3e33306040518363ffffffff1660e01b81526004016101d19291906109fd565b602060405180830381865afa1580156101ee573d6000803e3d6000fd5b505050506040513d601f19601f820116820180604052508101906102129190610a3b565b1015610253576040517f08c379a000000000000000000000000000000000000000000000000000000000815260040161024a90610ac5565b60405180910390fd5b60008054906101000a900473ffffffffffffffffffffffffffffffffffffffff1673ffffffffffffffffffffffffffffffffffffffff166323b872dd3330846040518463ffffffff1660e01b81526004016102b093929190610af4565b6020604051808303816000875af11580156102cf573d6000803e3d6000fd5b505050506040513d601f19601f820116820180604052508101906102f39190610b63565b610332576040517f08c379a000000000000000000000000000000000000000000000000000000000815260040161032990610bdc565b60405180910390fd5b61033a61082f565b6040518060400160405280600260149054906101000a900460ff1660ff16815260200183815250905080600360003373ffffffffffffffffffffffffffffffffffffffff1673ffffffffffffffffffffffffffffffffffffffff16815260200190815260200160002060008201518160000160006101000a81548160ff021916908360ff160217905550602082015181600101559050506004339080600181540180825580915050600190039060005260206000200160009091909190916101000a81548173ffffffffffffffffffffffffffffffffffffffff021916908373ffffffffffffffffffffffffffffffffffffffff1602179055505050565b600260009054906101000a900473ffffffffffffffffffffffffffffffffffffffff1673ffffffffffffffffffffffffffffffffffffffff163373ffffffffffffffffffffffffffffffffffffffff161461049257600080fd5b6000600160009054906101000a900473ffffffffffffffffffffffffffffffffffffffff1673ffffffffffffffffffffffffffffffffffffffff166370a08231306040518263ffffffff1660e01b81526004016104ef91906109a6565b602060405180830381865afa15801561050c573d6000803e3d6000fd5b505050506040513d601f19601f820116820180604052508101906105309190610a3b565b11610570576040517f08c379a000000000000000000000000000000000000000000000000000000000815260040161056790610c48565b60405180910390fd5b6001600260149054906101000a900460ff1661058c9190610c97565b600260146101000a81548160ff021916908360ff16021790555060005b6004805490508160ff1610156107c757600060048260ff16815481106105d2576105d1610cce565b5b9060005260206000200160009054906101000a900473ffffffffffffffffffffffffffffffffffffffff1690506000600360008373ffffffffffffffffffffffffffffffffffffffff1673ffffffffffffffffffffffffffffffffffffffff16815260200190815260200160002060000160009054906101000a900460ff16600260149054906101000a900460ff1661066b9190610cfd565b60ff16600360008473ffffffffffffffffffffffffffffffffffffffff1673ffffffffffffffffffffffffffffffffffffffff168152602001908152602001600020600101546106bb9190610d60565b905060008111156107b257600160009054906101000a900473ffffffffffffffffffffffffffffffffffffffff1673ffffffffffffffffffffffffffffffffffffffff1663a9059cbb83600a846107129190610d91565b6040518363ffffffff1660e01b815260040161072f929190610deb565b6020604051808303816000875af115801561074e573d6000803e3d6000fd5b505050506040513d601f19601f820116820180604052508101906107729190610b63565b6107b1576040517f08c379a00000000000000000000000000000000000000000000000000000000081526004016107a890610bdc565b60405180910390fd5b5b505080806107bf90610e14565b9150506105a9565b50565b600481815481106107da57600080fd5b906000526020600020016000915054906101000a900473ffffffffffffffffffffffffffffffffffffffff1681565b600160009054906101000a900473ffffffffffffffffffffffffffffffffffffffff1681565b6040518060400160405280600060ff168152602001600081525090565b600073ffffffffffffffffffffffffffffffffffffffff82169050919050565b6000819050919050565b600061089161088c6108878461084c565b61086c565b61084c565b9050919050565b60006108a382610876565b9050919050565b60006108b582610898565b9050919050565b6108c5816108aa565b82525050565b60006020820190506108e060008301846108bc565b92915050565b600060ff82169050919050565b6108fc816108e6565b82525050565b600060208201905061091760008301846108f3565b92915050565b600080fd5b6000819050919050565b61093581610922565b811461094057600080fd5b50565b6000813590506109528161092c565b92915050565b60006020828403121561096e5761096d61091d565b5b600061097c84828501610943565b91505092915050565b60006109908261084c565b9050919050565b6109a081610985565b82525050565b60006020820190506109bb6000830184610997565b92915050565b60006109cc82610898565b9050919050565b6109dc816109c1565b82525050565b60006020820190506109f760008301846109d3565b92915050565b6000604082019050610a126000830185610997565b610a1f6020830184610997565b9392505050565b600081519050610a358161092c565b92915050565b600060208284031215610a5157610a5061091d565b5b6000610a5f84828501610a26565b91505092915050565b600082825260208201905092915050565b7f416c6c6f77616e63652065727200000000000000000000000000000000000000600082015250565b6000610aaf600d83610a68565b9150610aba82610a79565b602082019050919050565b60006020820190508181036000830152610ade81610aa2565b9050919050565b610aee81610922565b82525050565b6000606082019050610b096000830186610997565b610b166020830185610997565b610b236040830184610ae5565b949350505050565b60008115159050919050565b610b4081610b2b565b8114610b4b57600080fd5b50565b600081519050610b5d81610b37565b92915050565b600060208284031215610b7957610b7861091d565b5b6000610b8784828501610b4e565b91505092915050565b7f5472616e73666572206572720000000000000000000000000000000000000000600082015250565b6000610bc6600c83610a68565b9150610bd182610b90565b602082019050919050565b60006020820190508181036000830152610bf581610bb9565b9050919050565b7f646f206e6f7420686176652072657761726473206f6e20636f6e747261637400600082015250565b6000610c32601f83610a68565b9150610c3d82610bfc565b602082019050919050565b60006020820190508181036000830152610c6181610c25565b9050919050565b7f4e487b7100000000000000000000000000000000000000000000000000000000600052601160045260246000fd5b6000610ca2826108e6565b9150610cad836108e6565b92508260ff03821115610cc357610cc2610c68565b5b828201905092915050565b7f4e487b7100000000000000000000000000000000000000000000000000000000600052603260045260246000fd5b6000610d08826108e6565b9150610d13836108e6565b925082821015610d2657610d25610c68565b5b828203905092915050565b7f4e487b7100000000000000000000000000000000000000000000000000000000600052601260045260246000fd5b6000610d6b82610922565b9150610d7683610922565b925082610d8657610d85610d31565b5b828204905092915050565b6000610d9c82610922565b9150610da783610922565b9250817fffffffffffffffffffffffffffffffffffffffffffffffffffffffffffffffff0483118215151615610de057610ddf610c68565b5b828202905092915050565b6000604082019050610e006000830185610997565b610e0d6020830184610ae5565b9392505050565b6000610e1f826108e6565b915060ff821415610e3357610e32610c68565b5b60018201905091905056fea264697066735822122068176a5b2df92028ae6cd18d51e9ca618adfb7ef26dc0f85fbc2eb569fe1856e64736f6c634300080a0033",
  "immutableReferences": {},
  "source": "// SPDX-License-Identifier: MIT\npragma solidity >=0.4.22 <0.9.0;\n\nimport {WToken} from \"./tokens/WToken.sol\";\nimport {USDToken} from \"./tokens/USDToken.sol\";\n\ncontract Rewards {\n    WToken public wToken;\n    USDToken public usdToken;\n\n    address private owner;\n    uint8 public index = 0;\n\n    struct Staker {\n        uint8 index;\n        uint256 amount;\n    }\n\n    mapping(address => Staker) stakers;\n    address[] public allStakers;\n\n    constructor(WToken _wTokenAddr, USDToken _usdTokenAddr) payable {\n        owner = msg.sender;\n        wToken = _wTokenAddr;\n        usdToken = _usdTokenAddr;\n    }\n\n    modifier onlyOwner() {\n        require(msg.sender == owner);\n        _;\n    }\n\n    function setRewards() public payable onlyOwner {\n        require(\n            usdToken.balanceOf(address(this)) > 0,\n            \"do not have rewards on contract\"\n        );\n        index = index + 1;\n        for (uint8 i = 0; i < allStakers.length; i++) {\n            address wallet = allStakers[i];\n            uint256 amount = stakers[wallet].amount / (index - stakers[wallet].index);\n            if (amount > 0) {\n                require(usdToken.transfer(wallet, amount * 10), \"Transfer err\");\n            }\n        }\n    }\n\n    function setStake(uint256 _amount) public payable {\n        require(\n            wToken.allowance(msg.sender, address(this)) >= _amount,\n            \"Allowance err\"\n        );\n        require(\n            wToken.transferFrom(msg.sender, address(this), _amount),\n            \"Transfer err\"\n        );\n        Staker memory staker;\n        staker = Staker(index, _amount);\n        stakers[msg.sender] = staker;\n        allStakers.push(msg.sender);\n    }\n}\n",
  "sourcePath": "/Users/voroshilovmax/Development/solidity/wisdomise/contracts/Rewards.sol",
  "compiler": {
    "name": "solc",
    "version": "0.8.10+commit.fc410830.Linux.g++"
  },
  "schemaVersion": "3.4.4",
  "updatedAt": "2022-02-04T14:30:11.487Z",
  "networkType": "ethereum",
  "devdoc": {
    "kind": "dev",
    "methods": {},
    "version": 1
  },
  "userdoc": {
    "kind": "user",
    "methods": {},
    "version": 1
  }
}