{
  "contractName": "Rewards",
  "abi": [
    {
      "inputs": [
        {
          "internalType": "contract WToken",
          "name": "_wTokenAddr",
          "type": "address"
        },
        {
          "internalType": "contract USDToken",
          "name": "_usdTokenAddr",
          "type": "address"
        }
      ],
      "stateMutability": "payable",
      "type": "constructor",
      "payable": true
    },
    {
      "inputs": [
        {
          "internalType": "uint256",
          "name": "",
          "type": "uint256"
        }
      ],
      "name": "allStakers",
      "outputs": [
        {
          "internalType": "address",
          "name": "",
          "type": "address"
        }
      ],
      "stateMutability": "view",
      "type": "function",
      "constant": true
    },
    {
      "inputs": [],
      "name": "index",
      "outputs": [
        {
          "internalType": "uint8",
          "name": "",
          "type": "uint8"
        }
      ],
      "stateMutability": "view",
      "type": "function",
      "constant": true
    },
    {
      "inputs": [],
      "name": "owner",
      "outputs": [
        {
          "internalType": "address",
          "name": "",
          "type": "address"
        }
      ],
      "stateMutability": "view",
      "type": "function",
      "constant": true
    },
    {
      "inputs": [],
      "name": "usdToken",
      "outputs": [
        {
          "internalType": "contract USDToken",
          "name": "",
          "type": "address"
        }
      ],
      "stateMutability": "view",
      "type": "function",
      "constant": true
    },
    {
      "inputs": [],
      "name": "wToken",
      "outputs": [
        {
          "internalType": "contract WToken",
          "name": "",
          "type": "address"
        }
      ],
      "stateMutability": "view",
      "type": "function",
      "constant": true
    },
    {
      "inputs": [],
      "name": "setRewards",
      "outputs": [],
      "stateMutability": "payable",
      "type": "function",
      "payable": true
    },
    {
      "inputs": [
        {
          "internalType": "uint256",
          "name": "_amount",
          "type": "uint256"
        }
      ],
      "name": "setStake",
      "outputs": [],
      "stateMutability": "payable",
      "type": "function",
      "payable": true
    }
  ],
  "bytecode": "0x60806040526000600260146101000a81548160ff021916908360ff16021790555060405162000fbf38038062000fbf8339818101604052810190620000459190620001d2565b33600260006101000a81548173ffffffffffffffffffffffffffffffffffffffff021916908373ffffffffffffffffffffffffffffffffffffffff160217905550816000806101000a81548173ffffffffffffffffffffffffffffffffffffffff021916908373ffffffffffffffffffffffffffffffffffffffff16021790555080600160006101000a81548173ffffffffffffffffffffffffffffffffffffffff021916908373ffffffffffffffffffffffffffffffffffffffff160217905550505062000219565b600080fd5b600073ffffffffffffffffffffffffffffffffffffffff82169050919050565b6000620001418262000114565b9050919050565b6000620001558262000134565b9050919050565b620001678162000148565b81146200017357600080fd5b50565b60008151905062000187816200015c565b92915050565b60006200019a8262000134565b9050919050565b620001ac816200018d565b8114620001b857600080fd5b50565b600081519050620001cc81620001a1565b92915050565b60008060408385031215620001ec57620001eb6200010f565b5b6000620001fc8582860162000176565b92505060206200020f85828601620001bb565b9150509250929050565b610d9680620002296000396000f3fe6080604052600436106100705760003560e01c806368ab8f971161004e57806368ab8f97146100e75780638da5cb5b146100f1578063c3214d6c1461011c578063f897a22b1461015957610070565b80630babd864146100755780632986c0e5146100a057806335d9db53146100cb575b600080fd5b34801561008157600080fd5b5061008a610184565b6040516100979190610859565b60405180910390f35b3480156100ac57600080fd5b506100b56101a8565b6040516100c29190610890565b60405180910390f35b6100e560048036038101906100e091906108e6565b6101bb565b005b6100ef61047e565b005b3480156100fd57600080fd5b50610106610732565b6040516101139190610934565b60405180910390f35b34801561012857600080fd5b50610143600480360381019061013e91906108e6565b610758565b6040516101509190610934565b60405180910390f35b34801561016557600080fd5b5061016e610797565b60405161017b9190610970565b60405180910390f35b60008054906101000a900473ffffffffffffffffffffffffffffffffffffffff1681565b600260149054906101000a900460ff1681565b8060008054906101000a900473ffffffffffffffffffffffffffffffffffffffff1673ffffffffffffffffffffffffffffffffffffffff1663dd62ed3e33306040518363ffffffff1660e01b815260040161021792919061098b565b602060405180830381865afa158015610234573d6000803e3d6000fd5b505050506040513d601f19601f8201168201806040525081019061025891906109c9565b1015610299576040517f08c379a000000000000000000000000000000000000000000000000000000000815260040161029090610a53565b60405180910390fd5b60008054906101000a900473ffffffffffffffffffffffffffffffffffffffff1673ffffffffffffffffffffffffffffffffffffffff166323b872dd3330846040518463ffffffff1660e01b81526004016102f693929190610a82565b6020604051808303816000875af1158015610315573d6000803e3d6000fd5b505050506040513d601f19601f820116820180604052508101906103399190610af1565b610378576040517f08c379a000000000000000000000000000000000000000000000000000000000815260040161036f90610b6a565b60405180910390fd5b6103806107bd565b6040518060400160405280600260149054906101000a900460ff1660ff16815260200183815250905080600360003373ffffffffffffffffffffffffffffffffffffffff1673ffffffffffffffffffffffffffffffffffffffff16815260200190815260200160002060008201518160000160006101000a81548160ff021916908360ff160217905550602082015181600101559050506004339080600181540180825580915050600190039060005260206000200160009091909190916101000a81548173ffffffffffffffffffffffffffffffffffffffff021916908373ffffffffffffffffffffffffffffffffffffffff1602179055505050565b600260009054906101000a900473ffffffffffffffffffffffffffffffffffffffff1673ffffffffffffffffffffffffffffffffffffffff163373ffffffffffffffffffffffffffffffffffffffff16146104d857600080fd5b6001600260149054906101000a900460ff166104f49190610bb9565b600260146101000a81548160ff021916908360ff16021790555060005b6004805490508160ff16101561072f57600060048260ff168154811061053a57610539610bf0565b5b9060005260206000200160009054906101000a900473ffffffffffffffffffffffffffffffffffffffff1690506000600360008373ffffffffffffffffffffffffffffffffffffffff1673ffffffffffffffffffffffffffffffffffffffff16815260200190815260200160002060000160009054906101000a900460ff16600260149054906101000a900460ff166105d39190610c1f565b60ff16600360008473ffffffffffffffffffffffffffffffffffffffff1673ffffffffffffffffffffffffffffffffffffffff168152602001908152602001600020600101546106239190610c82565b9050600081111561071a57600160009054906101000a900473ffffffffffffffffffffffffffffffffffffffff1673ffffffffffffffffffffffffffffffffffffffff1663a9059cbb83600a8461067a9190610cb3565b6040518363ffffffff1660e01b8152600401610697929190610d0d565b6020604051808303816000875af11580156106b6573d6000803e3d6000fd5b505050506040513d601f19601f820116820180604052508101906106da9190610af1565b610719576040517f08c379a000000000000000000000000000000000000000000000000000000000815260040161071090610b6a565b60405180910390fd5b5b5050808061072790610d36565b915050610511565b50565b600260009054906101000a900473ffffffffffffffffffffffffffffffffffffffff1681565b6004818154811061076857600080fd5b906000526020600020016000915054906101000a900473ffffffffffffffffffffffffffffffffffffffff1681565b600160009054906101000a900473ffffffffffffffffffffffffffffffffffffffff1681565b6040518060400160405280600060ff168152602001600081525090565b600073ffffffffffffffffffffffffffffffffffffffff82169050919050565b6000819050919050565b600061081f61081a610815846107da565b6107fa565b6107da565b9050919050565b600061083182610804565b9050919050565b600061084382610826565b9050919050565b61085381610838565b82525050565b600060208201905061086e600083018461084a565b92915050565b600060ff82169050919050565b61088a81610874565b82525050565b60006020820190506108a56000830184610881565b92915050565b600080fd5b6000819050919050565b6108c3816108b0565b81146108ce57600080fd5b50565b6000813590506108e0816108ba565b92915050565b6000602082840312156108fc576108fb6108ab565b5b600061090a848285016108d1565b91505092915050565b600061091e826107da565b9050919050565b61092e81610913565b82525050565b60006020820190506109496000830184610925565b92915050565b600061095a82610826565b9050919050565b61096a8161094f565b82525050565b60006020820190506109856000830184610961565b92915050565b60006040820190506109a06000830185610925565b6109ad6020830184610925565b9392505050565b6000815190506109c3816108ba565b92915050565b6000602082840312156109df576109de6108ab565b5b60006109ed848285016109b4565b91505092915050565b600082825260208201905092915050565b7f416c6c6f77616e63652065727200000000000000000000000000000000000000600082015250565b6000610a3d600d836109f6565b9150610a4882610a07565b602082019050919050565b60006020820190508181036000830152610a6c81610a30565b9050919050565b610a7c816108b0565b82525050565b6000606082019050610a976000830186610925565b610aa46020830185610925565b610ab16040830184610a73565b949350505050565b60008115159050919050565b610ace81610ab9565b8114610ad957600080fd5b50565b600081519050610aeb81610ac5565b92915050565b600060208284031215610b0757610b066108ab565b5b6000610b1584828501610adc565b91505092915050565b7f5472616e73666572206572720000000000000000000000000000000000000000600082015250565b6000610b54600c836109f6565b9150610b5f82610b1e565b602082019050919050565b60006020820190508181036000830152610b8381610b47565b9050919050565b7f4e487b7100000000000000000000000000000000000000000000000000000000600052601160045260246000fd5b6000610bc482610874565b9150610bcf83610874565b92508260ff03821115610be557610be4610b8a565b5b828201905092915050565b7f4e487b7100000000000000000000000000000000000000000000000000000000600052603260045260246000fd5b6000610c2a82610874565b9150610c3583610874565b925082821015610c4857610c47610b8a565b5b828203905092915050565b7f4e487b7100000000000000000000000000000000000000000000000000000000600052601260045260246000fd5b6000610c8d826108b0565b9150610c98836108b0565b925082610ca857610ca7610c53565b5b828204905092915050565b6000610cbe826108b0565b9150610cc9836108b0565b9250817fffffffffffffffffffffffffffffffffffffffffffffffffffffffffffffffff0483118215151615610d0257610d01610b8a565b5b828202905092915050565b6000604082019050610d226000830185610925565b610d2f6020830184610a73565b9392505050565b6000610d4182610874565b915060ff821415610d5557610d54610b8a565b5b60018201905091905056fea2646970667358221220c93e2ce6c028f841bb44fb1a420fa7daff424422b448161065c586c5a66c0e0164736f6c634300080a0033",
  "immutableReferences": {},
  "source": "// SPDX-License-Identifier: MIT\npragma solidity >=0.4.22 <0.9.0;\n\nimport {WToken} from \"./tokens/WToken.sol\";\nimport {USDToken} from \"./tokens/USDToken.sol\";\n\ncontract Rewards {\n    WToken public wToken;\n    USDToken public usdToken;\n\n    address public owner;\n    uint8 public index = 0;\n\n    struct Staker {\n        uint8 index;\n        uint256 amount;\n    }\n\n    mapping(address => Staker) stakers;\n    address[] public allStakers;\n\n    constructor(WToken _wTokenAddr, USDToken _usdTokenAddr) payable {\n        owner = msg.sender;\n        wToken = _wTokenAddr;\n        usdToken = _usdTokenAddr;\n    }\n\n    modifier onlyOwner() {\n        require(msg.sender == owner);\n        _;\n    }\n\n    function setRewards() public payable onlyOwner {\n        index = index + 1;\n        for (uint8 i = 0; i < allStakers.length; i++) {\n            address wallet = allStakers[i];\n            uint256 amount = stakers[wallet].amount / (index - stakers[wallet].index);\n            if (amount > 0) {\n                require(usdToken.transfer(wallet, amount * 10), \"Transfer err\");\n            }\n        }\n    }\n\n    function setStake(uint256 _amount) public payable {\n        require(\n            wToken.allowance(msg.sender, address(this)) >= _amount,\n            \"Allowance err\"\n        );\n        require(\n            wToken.transferFrom(msg.sender, address(this), _amount),\n            \"Transfer err\"\n        );\n        Staker memory staker;\n        staker = Staker(index, _amount);\n        stakers[msg.sender] = staker;\n        allStakers.push(msg.sender);\n    }\n}\n",
  "sourcePath": "/Users/voroshilovmax/Development/solidity/wisdomise/contracts/Rewards.sol",
  "compiler": {
    "name": "solc",
    "version": "0.8.10+commit.fc410830.Linux.g++"
  },
  "schemaVersion": "3.4.3",
  "updatedAt": "2022-01-18T21:02:47.698Z",
  "networkType": "ethereum",
  "devdoc": {
    "kind": "dev",
    "methods": {},
    "version": 1
  },
  "userdoc": {
    "kind": "user",
    "methods": {},
    "version": 1
  }
}